:100000000C942A000C943F000C943F000C943F0089
:100010000C943F000C943F000C943F000C943F0064
:100020000C943F000C943F000C943F000C943F0054
:100030000C943F000C943F000C943F000C943F0044
:100040000C943F000C943F000C943F000C943F0034
:100050000C943F0011241FBECFE5D4E0DEBFCDBF1E
:1000600010E0A0E6B0E0E6EDF2E002C005900D92EF
:10007000A036B107D9F70E94F9000C9469010C94DD
:10008000000088BB82B38E7F82BB82B38D7F82BB30
:1000900082B3846082BB8FE19EE40197F1F700C0D8
:1000A000000082B38B7F82BB089588BB82B38160DE
:1000B00082BB82B38D7F82BB82B3846082BB8FE1BF
:1000C0009EE40197F1F700C0000082B38B7F82BBF2
:1000D00008950F931F93CF938C01C0E003C00E943B
:1000E0005500CF5FF801EC0FF11D80818111F7CF32
:1000F000CF911F910F9108958FEF87BB81B38760D8
:1001000081BB88E30E94410081E00E94410086E0BB
:100110000E9441008CE00E9441000895CF93DF933C
:10012000EA01813031F4862F8F7080680E9441008F
:1001300005C0862F8F70806C0E944100CE010E9406
:100140006900DF91CF910895CF93C42F813031F4AE
:10015000862F8F7080680E94410005C0862F8F70A7
:10016000806C0E9441008C2F0E945500CF91089511
:100170000F931F93CF93DF93CDB7DEB728970FB6BA
:10018000F894DEBF0FBECDBF01E011E011C04AE020
:10019000BE016F5F7F4F802F90E00E943401AE015F
:1001A0004F5F5F4F612F81E00E948E000F5F1D5FE8
:1001B0001E3068F310E006C04BE5612F82E00E941C
:1001C000A4001D5F1D30C0F312E006C04DE5612F95
:1001D00082E00E94A4001D5F1F30C0F328960FB676
:1001E000F894DEBF0FBECDBFDF91CF911F910F916D
:1001F00008958AB38C6F8ABB0E947C000E94B8006D
:1002000089B38370823079F08330C1F0813009F591
:100210004CE761E082E00E94A4004FE864E082E0E5
:100220000E94A400EDCF4CE764E082E00E94A400AD
:100230004FE861E082E00E94A400E2CF4CE761E079
:1002400082E00E94A4004CE764E082E00E94A400E7
:10025000D7CF4FE861E082E00E94A4004FE864E05D
:1002600082E00E94A400CCCFBB274A3031F499230E
:1002700022F4BDE2909581959F4F0C944001BB27DD
:10028000FB015527AA27880F991FAA1FA41710F052
:10029000A41B83955051B9F7A05DAA3308F0A95D5E
:1002A000A193009779F7B111B1931192CB010C94FE
:1002B0005901DC01FC01672F71917723E1F7329737
:1002C00004C07C916D9370836291AE17BF07C8F331
:0602D0000895F894FFCF31
:00000001FF
